{
  "contractName": "Kleros",
  "abi": [
    {
      "constant": true,
      "inputs": [],
      "name": "lastPeriodChange",
      "outputs": [
        {
          "name": "",
          "type": "uint256"
        }
      ],
      "payable": false,
      "stateMutability": "view",
      "type": "function"
    },
    {
      "constant": true,
      "inputs": [],
      "name": "governor",
      "outputs": [
        {
          "name": "",
          "type": "address"
        }
      ],
      "payable": false,
      "stateMutability": "view",
      "type": "function"
    },
    {
      "constant": true,
      "inputs": [],
      "name": "rnBlock",
      "outputs": [
        {
          "name": "",
          "type": "uint256"
        }
      ],
      "payable": false,
      "stateMutability": "view",
      "type": "function"
    },
    {
      "constant": true,
      "inputs": [],
      "name": "segmentSize",
      "outputs": [
        {
          "name": "",
          "type": "uint256"
        }
      ],
      "payable": false,
      "stateMutability": "view",
      "type": "function"
    },
    {
      "constant": true,
      "inputs": [
        {
          "name": "",
          "type": "uint256"
        }
      ],
      "name": "disputes",
      "outputs": [
        {
          "name": "arbitrated",
          "type": "address"
        },
        {
          "name": "session",
          "type": "uint256"
        },
        {
          "name": "appeals",
          "type": "uint256"
        },
        {
          "name": "choices",
          "type": "uint256"
        },
        {
          "name": "initialNumberJurors",
          "type": "uint16"
        },
        {
          "name": "arbitrationFeePerJuror",
          "type": "uint256"
        },
        {
          "name": "state",
          "type": "uint8"
        },
        {
          "name": "currentAppealToRepartition",
          "type": "uint256"
        }
      ],
      "payable": false,
      "stateMutability": "view",
      "type": "function"
    },
    {
      "constant": true,
      "inputs": [],
      "name": "session",
      "outputs": [
        {
          "name": "",
          "type": "uint256"
        }
      ],
      "payable": false,
      "stateMutability": "view",
      "type": "function"
    },
    {
      "constant": true,
      "inputs": [],
      "name": "NON_PAYABLE_AMOUNT",
      "outputs": [
        {
          "name": "",
          "type": "uint256"
        }
      ],
      "payable": false,
      "stateMutability": "view",
      "type": "function"
    },
    {
      "constant": true,
      "inputs": [],
      "name": "arbitrationFeePerJuror",
      "outputs": [
        {
          "name": "",
          "type": "uint256"
        }
      ],
      "payable": false,
      "stateMutability": "view",
      "type": "function"
    },
    {
      "constant": true,
      "inputs": [],
      "name": "defaultNumberJuror",
      "outputs": [
        {
          "name": "",
          "type": "uint16"
        }
      ],
      "payable": false,
      "stateMutability": "view",
      "type": "function"
    },
    {
      "constant": true,
      "inputs": [
        {
          "name": "",
          "type": "uint256"
        }
      ],
      "name": "timePerPeriod",
      "outputs": [
        {
          "name": "",
          "type": "uint256"
        }
      ],
      "payable": false,
      "stateMutability": "view",
      "type": "function"
    },
    {
      "constant": true,
      "inputs": [],
      "name": "randomNumber",
      "outputs": [
        {
          "name": "",
          "type": "uint256"
        }
      ],
      "payable": false,
      "stateMutability": "view",
      "type": "function"
    },
    {
      "constant": true,
      "inputs": [],
      "name": "rng",
      "outputs": [
        {
          "name": "",
          "type": "address"
        }
      ],
      "payable": false,
      "stateMutability": "view",
      "type": "function"
    },
    {
      "constant": true,
      "inputs": [],
      "name": "maxAppeals",
      "outputs": [
        {
          "name": "",
          "type": "uint256"
        }
      ],
      "payable": false,
      "stateMutability": "view",
      "type": "function"
    },
    {
      "constant": true,
      "inputs": [],
      "name": "alpha",
      "outputs": [
        {
          "name": "",
          "type": "uint256"
        }
      ],
      "payable": false,
      "stateMutability": "view",
      "type": "function"
    },
    {
      "constant": true,
      "inputs": [
        {
          "name": "",
          "type": "address"
        }
      ],
      "name": "jurors",
      "outputs": [
        {
          "name": "balance",
          "type": "uint256"
        },
        {
          "name": "atStake",
          "type": "uint256"
        },
        {
          "name": "lastSession",
          "type": "uint256"
        },
        {
          "name": "segmentStart",
          "type": "uint256"
        },
        {
          "name": "segmentEnd",
          "type": "uint256"
        }
      ],
      "payable": false,
      "stateMutability": "view",
      "type": "function"
    },
    {
      "constant": true,
      "inputs": [],
      "name": "period",
      "outputs": [
        {
          "name": "",
          "type": "uint8"
        }
      ],
      "payable": false,
      "stateMutability": "view",
      "type": "function"
    },
    {
      "constant": true,
      "inputs": [],
      "name": "minActivatedToken",
      "outputs": [
        {
          "name": "",
          "type": "uint256"
        }
      ],
      "payable": false,
      "stateMutability": "view",
      "type": "function"
    },
    {
      "constant": true,
      "inputs": [],
      "name": "pinakion",
      "outputs": [
        {
          "name": "",
          "type": "address"
        }
      ],
      "payable": false,
      "stateMutability": "view",
      "type": "function"
    },
    {
      "inputs": [
        {
          "name": "_pinakion",
          "type": "address"
        },
        {
          "name": "_rng",
          "type": "address"
        },
        {
          "name": "_timePerPeriod",
          "type": "uint256[5]"
        },
        {
          "name": "_governor",
          "type": "address"
        }
      ],
      "payable": false,
      "stateMutability": "nonpayable",
      "type": "constructor"
    },
    {
      "anonymous": false,
      "inputs": [
        {
          "indexed": false,
          "name": "_period",
          "type": "uint8"
        },
        {
          "indexed": true,
          "name": "_session",
          "type": "uint256"
        }
      ],
      "name": "NewPeriod",
      "type": "event"
    },
    {
      "anonymous": false,
      "inputs": [
        {
          "indexed": true,
          "name": "_account",
          "type": "address"
        },
        {
          "indexed": false,
          "name": "_disputeID",
          "type": "uint256"
        },
        {
          "indexed": false,
          "name": "_amount",
          "type": "int256"
        }
      ],
      "name": "TokenShift",
      "type": "event"
    },
    {
      "anonymous": false,
      "inputs": [
        {
          "indexed": true,
          "name": "_account",
          "type": "address"
        },
        {
          "indexed": false,
          "name": "_disputeID",
          "type": "uint256"
        },
        {
          "indexed": false,
          "name": "_amount",
          "type": "uint256"
        }
      ],
      "name": "ArbitrationReward",
      "type": "event"
    },
    {
      "anonymous": false,
      "inputs": [
        {
          "indexed": false,
          "name": "_disputeID",
          "type": "uint256"
        }
      ],
      "name": "AppealPossible",
      "type": "event"
    },
    {
      "anonymous": false,
      "inputs": [
        {
          "indexed": true,
          "name": "_disputeID",
          "type": "uint256"
        },
        {
          "indexed": false,
          "name": "_arbitrable",
          "type": "address"
        }
      ],
      "name": "DisputeCreation",
      "type": "event"
    },
    {
      "anonymous": false,
      "inputs": [
        {
          "indexed": true,
          "name": "_disputeID",
          "type": "uint256"
        },
        {
          "indexed": false,
          "name": "_arbitrable",
          "type": "address"
        }
      ],
      "name": "AppealDecision",
      "type": "event"
    },
    {
      "constant": false,
      "inputs": [
        {
          "name": "_from",
          "type": "address"
        },
        {
          "name": "_amount",
          "type": "uint256"
        },
        {
          "name": "",
          "type": "address"
        },
        {
          "name": "",
          "type": "bytes"
        }
      ],
      "name": "receiveApproval",
      "outputs": [],
      "payable": false,
      "stateMutability": "nonpayable",
      "type": "function"
    },
    {
      "constant": false,
      "inputs": [
        {
          "name": "_value",
          "type": "uint256"
        }
      ],
      "name": "withdraw",
      "outputs": [],
      "payable": false,
      "stateMutability": "nonpayable",
      "type": "function"
    },
    {
      "constant": false,
      "inputs": [],
      "name": "passPeriod",
      "outputs": [],
      "payable": false,
      "stateMutability": "nonpayable",
      "type": "function"
    },
    {
      "constant": false,
      "inputs": [
        {
          "name": "_value",
          "type": "uint256"
        }
      ],
      "name": "activateTokens",
      "outputs": [],
      "payable": false,
      "stateMutability": "nonpayable",
      "type": "function"
    },
    {
      "constant": false,
      "inputs": [
        {
          "name": "_disputeID",
          "type": "uint256"
        },
        {
          "name": "_ruling",
          "type": "uint256"
        },
        {
          "name": "_draws",
          "type": "uint256[]"
        }
      ],
      "name": "voteRuling",
      "outputs": [],
      "payable": false,
      "stateMutability": "nonpayable",
      "type": "function"
    },
    {
      "constant": false,
      "inputs": [
        {
          "name": "_jurorAddress",
          "type": "address"
        },
        {
          "name": "_disputeID",
          "type": "uint256"
        },
        {
          "name": "_draws",
          "type": "uint256[]"
        }
      ],
      "name": "penalizeInactiveJuror",
      "outputs": [],
      "payable": false,
      "stateMutability": "nonpayable",
      "type": "function"
    },
    {
      "constant": false,
      "inputs": [
        {
          "name": "_disputeID",
          "type": "uint256"
        }
      ],
      "name": "oneShotTokenRepartition",
      "outputs": [],
      "payable": false,
      "stateMutability": "nonpayable",
      "type": "function"
    },
    {
      "constant": false,
      "inputs": [
        {
          "name": "_disputeID",
          "type": "uint256"
        },
        {
          "name": "_maxIterations",
          "type": "uint256"
        }
      ],
      "name": "multipleShotTokenRepartition",
      "outputs": [],
      "payable": false,
      "stateMutability": "nonpayable",
      "type": "function"
    },
    {
      "constant": true,
      "inputs": [
        {
          "name": "_disputeID",
          "type": "uint256"
        }
      ],
      "name": "amountJurors",
      "outputs": [
        {
          "name": "nbJurors",
          "type": "uint256"
        }
      ],
      "payable": false,
      "stateMutability": "view",
      "type": "function"
    },
    {
      "constant": true,
      "inputs": [
        {
          "name": "_jurorAddress",
          "type": "address"
        },
        {
          "name": "_disputeID",
          "type": "uint256"
        },
        {
          "name": "_draws",
          "type": "uint256[]"
        }
      ],
      "name": "validDraws",
      "outputs": [
        {
          "name": "valid",
          "type": "bool"
        }
      ],
      "payable": false,
      "stateMutability": "view",
      "type": "function"
    },
    {
      "constant": false,
      "inputs": [
        {
          "name": "_choices",
          "type": "uint256"
        },
        {
          "name": "_extraData",
          "type": "bytes"
        }
      ],
      "name": "createDispute",
      "outputs": [
        {
          "name": "disputeID",
          "type": "uint256"
        }
      ],
      "payable": true,
      "stateMutability": "payable",
      "type": "function"
    },
    {
      "constant": false,
      "inputs": [
        {
          "name": "_disputeID",
          "type": "uint256"
        },
        {
          "name": "_extraData",
          "type": "bytes"
        }
      ],
      "name": "appeal",
      "outputs": [],
      "payable": true,
      "stateMutability": "payable",
      "type": "function"
    },
    {
      "constant": false,
      "inputs": [
        {
          "name": "disputeID",
          "type": "uint256"
        }
      ],
      "name": "executeRuling",
      "outputs": [],
      "payable": false,
      "stateMutability": "nonpayable",
      "type": "function"
    },
    {
      "constant": true,
      "inputs": [
        {
          "name": "_extraData",
          "type": "bytes"
        }
      ],
      "name": "arbitrationCost",
      "outputs": [
        {
          "name": "fee",
          "type": "uint256"
        }
      ],
      "payable": false,
      "stateMutability": "view",
      "type": "function"
    },
    {
      "constant": true,
      "inputs": [
        {
          "name": "_disputeID",
          "type": "uint256"
        },
        {
          "name": "_extraData",
          "type": "bytes"
        }
      ],
      "name": "appealCost",
      "outputs": [
        {
          "name": "fee",
          "type": "uint256"
        }
      ],
      "payable": false,
      "stateMutability": "view",
      "type": "function"
    },
    {
      "constant": true,
      "inputs": [],
      "name": "getStakePerDraw",
      "outputs": [
        {
          "name": "minActivatedTokenInAlpha",
          "type": "uint256"
        }
      ],
      "payable": false,
      "stateMutability": "view",
      "type": "function"
    },
    {
      "constant": true,
      "inputs": [
        {
          "name": "_disputeID",
          "type": "uint256"
        },
        {
          "name": "_appeals",
          "type": "uint256"
        },
        {
          "name": "_voteID",
          "type": "uint256"
        }
      ],
      "name": "getVoteAccount",
      "outputs": [
        {
          "name": "account",
          "type": "address"
        }
      ],
      "payable": false,
      "stateMutability": "view",
      "type": "function"
    },
    {
      "constant": true,
      "inputs": [
        {
          "name": "_disputeID",
          "type": "uint256"
        },
        {
          "name": "_appeals",
          "type": "uint256"
        },
        {
          "name": "_voteID",
          "type": "uint256"
        }
      ],
      "name": "getVoteRuling",
      "outputs": [
        {
          "name": "ruling",
          "type": "uint256"
        }
      ],
      "payable": false,
      "stateMutability": "view",
      "type": "function"
    },
    {
      "constant": true,
      "inputs": [
        {
          "name": "_disputeID",
          "type": "uint256"
        },
        {
          "name": "_appeals",
          "type": "uint256"
        }
      ],
      "name": "getWinningChoice",
      "outputs": [
        {
          "name": "winningChoice",
          "type": "uint256"
        }
      ],
      "payable": false,
      "stateMutability": "view",
      "type": "function"
    },
    {
      "constant": true,
      "inputs": [
        {
          "name": "_disputeID",
          "type": "uint256"
        },
        {
          "name": "_appeals",
          "type": "uint256"
        }
      ],
      "name": "getWinningCount",
      "outputs": [
        {
          "name": "winningCount",
          "type": "uint256"
        }
      ],
      "payable": false,
      "stateMutability": "view",
      "type": "function"
    },
    {
      "constant": true,
      "inputs": [
        {
          "name": "_disputeID",
          "type": "uint256"
        },
        {
          "name": "_appeals",
          "type": "uint256"
        },
        {
          "name": "_choice",
          "type": "uint256"
        }
      ],
      "name": "getVoteCount",
      "outputs": [
        {
          "name": "voteCount",
          "type": "uint256"
        }
      ],
      "payable": false,
      "stateMutability": "view",
      "type": "function"
    },
    {
      "constant": true,
      "inputs": [
        {
          "name": "_disputeID",
          "type": "uint256"
        },
        {
          "name": "_juror",
          "type": "address"
        }
      ],
      "name": "getLastSessionVote",
      "outputs": [
        {
          "name": "lastSessionVote",
          "type": "uint256"
        }
      ],
      "payable": false,
      "stateMutability": "view",
      "type": "function"
    },
    {
      "constant": true,
      "inputs": [
        {
          "name": "_disputeID",
          "type": "uint256"
        },
        {
          "name": "_juror",
          "type": "address"
        },
        {
          "name": "_draw",
          "type": "uint256"
        }
      ],
      "name": "isDrawn",
      "outputs": [
        {
          "name": "drawn",
          "type": "bool"
        }
      ],
      "payable": false,
      "stateMutability": "view",
      "type": "function"
    },
    {
      "constant": true,
      "inputs": [
        {
          "name": "_disputeID",
          "type": "uint256"
        }
      ],
      "name": "currentRuling",
      "outputs": [
        {
          "name": "ruling",
          "type": "uint256"
        }
      ],
      "payable": false,
      "stateMutability": "view",
      "type": "function"
    },
    {
      "constant": true,
      "inputs": [
        {
          "name": "_disputeID",
          "type": "uint256"
        }
      ],
      "name": "disputeStatus",
      "outputs": [
        {
          "name": "status",
          "type": "uint8"
        }
      ],
      "payable": false,
      "stateMutability": "view",
      "type": "function"
    },
    {
      "constant": false,
      "inputs": [
        {
          "name": "_data",
          "type": "bytes32"
        },
        {
          "name": "_value",
          "type": "uint256"
        },
        {
          "name": "_target",
          "type": "address"
        }
      ],
      "name": "executeOrder",
      "outputs": [],
      "payable": false,
      "stateMutability": "nonpayable",
      "type": "function"
    },
    {
      "constant": false,
      "inputs": [
        {
          "name": "_rng",
          "type": "address"
        }
      ],
      "name": "setRng",
      "outputs": [],
      "payable": false,
      "stateMutability": "nonpayable",
      "type": "function"
    },
    {
      "constant": false,
      "inputs": [
        {
          "name": "_arbitrationFeePerJuror",
          "type": "uint256"
        }
      ],
      "name": "setArbitrationFeePerJuror",
      "outputs": [],
      "payable": false,
      "stateMutability": "nonpayable",
      "type": "function"
    },
    {
      "constant": false,
      "inputs": [
        {
          "name": "_defaultNumberJuror",
          "type": "uint16"
        }
      ],
      "name": "setDefaultNumberJuror",
      "outputs": [],
      "payable": false,
      "stateMutability": "nonpayable",
      "type": "function"
    },
    {
      "constant": false,
      "inputs": [
        {
          "name": "_minActivatedToken",
          "type": "uint256"
        }
      ],
      "name": "setMinActivatedToken",
      "outputs": [],
      "payable": false,
      "stateMutability": "nonpayable",
      "type": "function"
    },
    {
      "constant": false,
      "inputs": [
        {
          "name": "_timePerPeriod",
          "type": "uint256[5]"
        }
      ],
      "name": "setTimePerPeriod",
      "outputs": [],
      "payable": false,
      "stateMutability": "nonpayable",
      "type": "function"
    },
    {
      "constant": false,
      "inputs": [
        {
          "name": "_alpha",
          "type": "uint256"
        }
      ],
      "name": "setAlpha",
      "outputs": [],
      "payable": false,
      "stateMutability": "nonpayable",
      "type": "function"
    },
    {
      "constant": false,
      "inputs": [
        {
          "name": "_maxAppeals",
          "type": "uint256"
        }
      ],
      "name": "setMaxAppeals",
      "outputs": [],
      "payable": false,
      "stateMutability": "nonpayable",
      "type": "function"
    },
    {
      "constant": false,
      "inputs": [
        {
          "name": "_governor",
          "type": "address"
        }
      ],
      "name": "setGovernor",
      "outputs": [],
      "payable": false,
      "stateMutability": "nonpayable",
      "type": "function"
    }
  ],
  "bytecode": "0x608060405266b1a2bc2ec5000060025560038060006101000a81548161ffff021916908361ffff16021790555067016345785d8a00006004556107d0600a556005600b556001600d553480156200005557600080fd5b506040516101008062004e56833981018060405281019080805190602001909291908051906020019092919091908260a00180519060200190929190505050836000806101000a81548173ffffffffffffffffffffffffffffffffffffffff021916908373ffffffffffffffffffffffffffffffffffffffff16021790555082600160006101000a81548173ffffffffffffffffffffffffffffffffffffffff021916908373ffffffffffffffffffffffffffffffffffffffff16021790555042600e819055508160059060056200012f9291906200017b565b5080600c60006101000a81548173ffffffffffffffffffffffffffffffffffffffff021916908373ffffffffffffffffffffffffffffffffffffffff16021790555050505050620001e8565b8260058101928215620001ad579160200282015b82811115620001ac5782518255916020019190600101906200018f565b5b509050620001bc9190620001c0565b5090565b620001e591905b80821115620001e1576000816000905550600101620001c7565b5090565b90565b614c5e80620001f86000396000f300608060405260043610610272576000357c0100000000000000000000000000000000000000000000000000000000900463ffffffff16806302d2f349146102775780630563324c146102a257806306ea1c02146102fd5780630c17d42c1461032a5780630c340a241461035757806310400446146103ae57806310f169e8146103db5780631c3db16d1461042a57806328764b441461046b57806329c8d3ce146104965780632dd40301146104c35780632e1a7d4d146105045780633cec9309146105315780633f58f8c01461055c57806349912f88146105d6578063564a565d1461063c57806359f568b9146106f05780635e3568b8146107215780636c9732481461074c5780636cd2f731146107a157806370d17adb146107f357806370dd2e0614610862578063824956261461088f578063840bc19c146109105780638bb048751461093b5780638f4ffcb1146109685780639313919a14610a1b578063a10e6d2814610a52578063ac74bcde14610a7d578063b241ff0314610ab0578063b3c7618e14610ac7578063b5040f0a14610b1c578063baaaaad214610b7d578063bb2e804714610bbe578063c13517e114610c01578063c15a679114610c7b578063c42cf53514610ca8578063c8860f4114610ceb578063ccbac9f514610d36578063d605787b14610d61578063da93f93814610db8578063db1d0fd514610de3578063dca5f6b014610e0e578063e07a31c714610e81578063e59a29a614610ecc578063ef78d4fd14610ef7578063f23f16e614610f30578063f55ab98714610fb7578063f7434ea914611047578063f9715458146110c4578063fbf405b0146110ef578063fe69dacd14611146575b600080fd5b34801561028357600080fd5b5061028c6111ee565b6040518082815260200191505060405180910390f35b3480156102ae57600080fd5b506102fb600480360381019080803560001916906020019092919080359060200190929190803573ffffffffffffffffffffffffffffffffffffffff1690602001909291905050506111f4565b005b34801561030957600080fd5b5061032860048036038101908080359060200190929190505050611295565b005b34801561033657600080fd5b50610355600480360381019080803590602001909291905050506112fb565b005b34801561036357600080fd5b5061036c611361565b604051808273ffffffffffffffffffffffffffffffffffffffff1673ffffffffffffffffffffffffffffffffffffffff16815260200191505060405180910390f35b3480156103ba57600080fd5b506103d960048036038101908080359060200190929190505050611387565b005b3480156103e757600080fd5b50610406600480360381019080803590602001909291905050506113ed565b6040518082600281111561041657fe5b60ff16815260200191505060405180910390f35b34801561043657600080fd5b50610455600480360381019080803590602001909291905050506114fb565b6040518082815260200191505060405180910390f35b34801561047757600080fd5b5061048061154c565b6040518082815260200191505060405180910390f35b3480156104a257600080fd5b506104c160048036038101908080359060200190929190505050611552565b005b3480156104cf57600080fd5b506104ee60048036038101908080359060200190929190505050611638565b6040518082815260200191505060405180910390f35b34801561051057600080fd5b5061052f60048036038101908080359060200190929190505050611688565b005b34801561053d57600080fd5b50610546611830565b6040518082815260200191505060405180910390f35b34801561056857600080fd5b506105d4600480360381019080803590602001909291908035906020019092919080359060200190820180359060200190808060200260200160405190810160405280939291908181526020018383602002808284378201915050505050509192919290505050611836565b005b61063a60048036038101908080359060200190929190803590602001908201803590602001908080601f0160208091040260200160405190810160405280939291908181526020018383808284378201915050505050509192919290505050611c17565b005b34801561064857600080fd5b5061066760048036038101908080359060200190929190505050611d4f565b604051808973ffffffffffffffffffffffffffffffffffffffff1673ffffffffffffffffffffffffffffffffffffffff1681526020018881526020018781526020018681526020018561ffff1661ffff1681526020018481526020018360038111156106cf57fe5b60ff1681526020018281526020019850505050505050505060405180910390f35b3480156106fc57600080fd5b5061071f600480360381019080803561ffff169060200190929190505050611de1565b005b34801561072d57600080fd5b50610736611e5d565b6040518082815260200191505060405180910390f35b34801561075857600080fd5b5061078b600480360381019080803590602001909291908035906020019092919080359060200190929190505050611e63565b6040518082815260200191505060405180910390f35b3480156107ad57600080fd5b506107f16004803603810190808060a00190600580602002604051908101604052809291908260056020028082843782019150505050509192919290505050611ebe565b005b3480156107ff57600080fd5b5061084860048036038101908080359060200190929190803573ffffffffffffffffffffffffffffffffffffffff16906020019092919080359060200190929190505050611f2f565b604051808215151515815260200191505060405180910390f35b34801561086e57600080fd5b5061088d6004803603810190808035906020019092919050505061207e565b005b34801561089b57600080fd5b506108ce6004803603810190808035906020019092919080359060200190929190803590602001909291905050506120e4565b604051808273ffffffffffffffffffffffffffffffffffffffff1673ffffffffffffffffffffffffffffffffffffffff16815260200191505060405180910390f35b34801561091c57600080fd5b50610925612165565b6040518082815260200191505060405180910390f35b34801561094757600080fd5b5061096660048036038101908080359060200190929190505050612189565b005b34801561097457600080fd5b50610a19600480360381019080803573ffffffffffffffffffffffffffffffffffffffff16906020019092919080359060200190929190803573ffffffffffffffffffffffffffffffffffffffff169060200190929190803590602001908201803590602001908080601f01602080910402602001604051908101604052809392919081815260200183838082843782019150505050505091929192905050506122e3565b005b348015610a2757600080fd5b50610a5060048036038101908080359060200190929190803590602001909291905050506124d4565b005b348015610a5e57600080fd5b50610a67613099565b6040518082815260200191505060405180910390f35b348015610a8957600080fd5b50610a9261309f565b604051808261ffff1661ffff16815260200191505060405180910390f35b348015610abc57600080fd5b50610ac56130b3565b005b348015610ad357600080fd5b50610b066004803603810190808035906020019092919080359060200190929190803590602001909291905050506134c8565b6040518082815260200191505060405180910390f35b348015610b2857600080fd5b50610b6760048036038101908080359060200190929190803573ffffffffffffffffffffffffffffffffffffffff169060200190929190505050613529565b6040518082815260200191505060405180910390f35b348015610b8957600080fd5b50610ba860048036038101908080359060200190929190505050613591565b6040518082815260200191505060405180910390f35b348015610bca57600080fd5b50610bff600480360381019080803573ffffffffffffffffffffffffffffffffffffffff1690602001909291905050506135ab565b005b610c6560048036038101908080359060200190929190803590602001908201803590602001908080601f016020809104026020016040519081016040528093929190818152602001838380828437820191505050505050919291929050505061364b565b6040518082815260200191505060405180910390f35b348015610c8757600080fd5b50610ca660048036038101908080359060200190929190505050613807565b005b348015610cb457600080fd5b50610ce9600480360381019080803573ffffffffffffffffffffffffffffffffffffffff169060200190929190505050613ead565b005b348015610cf757600080fd5b50610d206004803603810190808035906020019092919080359060200190929190505050613f4d565b6040518082815260200191505060405180910390f35b348015610d4257600080fd5b50610d4b613f96565b6040518082815260200191505060405180910390f35b348015610d6d57600080fd5b50610d76613f9c565b604051808273ffffffffffffffffffffffffffffffffffffffff1673ffffffffffffffffffffffffffffffffffffffff16815260200191505060405180910390f35b348015610dc457600080fd5b50610dcd613fc2565b6040518082815260200191505060405180910390f35b348015610def57600080fd5b50610df8613fc8565b6040518082815260200191505060405180910390f35b348015610e1a57600080fd5b50610e4f600480360381019080803573ffffffffffffffffffffffffffffffffffffffff169060200190929190505050613fce565b604051808681526020018581526020018481526020018381526020018281526020019550505050505060405180910390f35b348015610e8d57600080fd5b50610eb66004803603810190808035906020019092919080359060200190929190505050614004565b6040518082815260200191505060405180910390f35b348015610ed857600080fd5b50610ee161404d565b6040518082815260200191505060405180910390f35b348015610f0357600080fd5b50610f0c614068565b60405180826004811115610f1c57fe5b60ff16815260200191505060405180910390f35b348015610f3c57600080fd5b50610fa160048036038101908080359060200190929190803590602001908201803590602001908080601f016020809104026020016040519081016040528093929190818152602001838380828437820191505050505050919291929050505061407b565b6040518082815260200191505060405180910390f35b348015610fc357600080fd5b50611045600480360381019080803573ffffffffffffffffffffffffffffffffffffffff16906020019092919080359060200190929190803590602001908201803590602001908080602002602001604051908101604052809392919081815260200183836020028082843782019150505050505091929192905050506140f3565b005b34801561105357600080fd5b506110ae600480360381019080803590602001908201803590602001908080601f01602080910402602001604051908101604052809392919081815260200183838082843782019150505050505091929192905050506144f2565b6040518082815260200191505060405180910390f35b3480156110d057600080fd5b506110d961450c565b6040518082815260200191505060405180910390f35b3480156110fb57600080fd5b50611104614512565b604051808273ffffffffffffffffffffffffffffffffffffffff1673ffffffffffffffffffffffffffffffffffffffff16815260200191505060405180910390f35b34801561115257600080fd5b506111d4600480360381019080803573ffffffffffffffffffffffffffffffffffffffff1690602001909291908035906020019092919080359060200190820180359060200190808060200260200160405190810160405280939291908181526020018383602002808284378201915050505050509192919290505050614537565b604051808215151515815260200191505060405180910390f35b600e5481565b600c60009054906101000a900473ffffffffffffffffffffffffffffffffffffffff1673ffffffffffffffffffffffffffffffffffffffff163373ffffffffffffffffffffffffffffffffffffffff1614151561125057600080fd5b8073ffffffffffffffffffffffffffffffffffffffff16828460405180826000191660001916815260200191505060006040518083038185875af19250505050505050565b600c60009054906101000a900473ffffffffffffffffffffffffffffffffffffffff1673ffffffffffffffffffffffffffffffffffffffff163373ffffffffffffffffffffffffffffffffffffffff161415156112f157600080fd5b8060028190555050565b600c60009054906101000a900473ffffffffffffffffffffffffffffffffffffffff1673ffffffffffffffffffffffffffffffffffffffff163373ffffffffffffffffffffffffffffffffffffffff1614151561135757600080fd5b80600a8190555050565b600c60009054906101000a900473ffffffffffffffffffffffffffffffffffffffff1681565b600c60009054906101000a900473ffffffffffffffffffffffffffffffffffffffff1673ffffffffffffffffffffffffffffffffffffffff163373ffffffffffffffffffffffffffffffffffffffff161415156113e357600080fd5b80600b8190555050565b6000806014838154811015156113ff57fe5b90600052602060002090600c02019050600d548160020154826001015401101561142c57600291506114f5565b600d54816002015482600101540114156114f0576000600381111561144d57fe5b8160060160009054906101000a900460ff16600381111561146a57fe5b14156114e7576003600481111561147d57fe5b601260009054906101000a900460ff16600481111561149857fe5b10156114a757600091506114f5565b600360048111156114b457fe5b601260009054906101000a900460ff1660048111156114cf57fe5b14156114de57600191506114f5565b600291506114f5565b600291506114f5565b600091505b50919050565b60008060148381548110151561150d57fe5b90600052602060002090600c0201905080600801816002015481548110151561153257fe5b906000526020600020906003020160000154915050919050565b60105481565b60008080600481111561156157fe5b601260009054906101000a900460ff16600481111561157c57fe5b14151561158857600080fd5b601360003373ffffffffffffffffffffffffffffffffffffffff1673ffffffffffffffffffffffffffffffffffffffff1681526020019081526020016000209150816000015483111515156115dc57600080fd5b60045483101515156115ed57600080fd5b600d5482600201541415151561160257600080fd5b600d548260020181905550600f54826003018190555082600f60008282540192505081905550600f548260040181905550505050565b60008060148381548110151561164a57fe5b90600052602060002090600c020190506001816002015460020a60018360040160009054906101000a900461ffff160161ffff160203915050919050565b6000601360003373ffffffffffffffffffffffffffffffffffffffff1673ffffffffffffffffffffffffffffffffffffffff168152602001908152602001600020905080600001548160010154111515156116e257600080fd5b806001015481600001540382111515156116fb57600080fd5b600d5481600201541415151561171057600080fd5b8181600001600082825403925050819055506000809054906101000a900473ffffffffffffffffffffffffffffffffffffffff1673ffffffffffffffffffffffffffffffffffffffff1663a9059cbb33846040518363ffffffff167c0100000000000000000000000000000000000000000000000000000000028152600401808373ffffffffffffffffffffffffffffffffffffffff1673ffffffffffffffffffffffffffffffffffffffff16815260200182815260200192505050602060405180830381600087803b1580156117e657600080fd5b505af11580156117fa573d6000803e3d6000fd5b505050506040513d602081101561181057600080fd5b8101908080519060200190929190505050151561182c57600080fd5b5050565b600f5481565b6000806000806000600280600481111561184c57fe5b601260009054906101000a900460ff16600481111561186757fe5b14151561187357600080fd5b60148981548110151561188257fe5b90600052602060002090600c02019550601360003373ffffffffffffffffffffffffffffffffffffffff1673ffffffffffffffffffffffffffffffffffffffff16815260200190815260200160002094508560080186600201548154811015156118e857fe5b90600052602060002090600302019350600d548660090160003373ffffffffffffffffffffffffffffffffffffffff1673ffffffffffffffffffffffffffffffffffffffff168152602001908152602001600020541415151561194a57600080fd5b8560030154881115151561195d57600080fd5b611968338a89614537565b151561197357600080fd5b600d548660090160003373ffffffffffffffffffffffffffffffffffffffff1673ffffffffffffffffffffffffffffffffffffffff1681526020019081526020016000208190555086518460020160008a8152602001908152602001600020600082825401925050819055508360020160008981526020019081526020016000205484600101541015611a2c57836002016000898152602001908152602001600020548460010181905550878460000181905550611a67565b836002016000898152602001908152602001600020548460010154148015611a5657506000875114155b15611a6657600084600001819055505b5b600092505b8651831015611b4957856007018660020154815481101515611a8a57fe5b9060005260206000200160408051908101604052803373ffffffffffffffffffffffffffffffffffffffff1681526020018a8152509080600181540180825580915050906001820390600052602060002090600202016000909192909190915060008201518160000160006101000a81548173ffffffffffffffffffffffffffffffffffffffff021916908373ffffffffffffffffffffffffffffffffffffffff16021790555060208201518160010155505050826001019250611a6c565b611b5161404d565b8751028560010160008282540192505081905550856005015487510291503373ffffffffffffffffffffffffffffffffffffffff166108fc839081150290604051600060405180830381858888f19350505050158015611bb5573d6000803e3d6000fd5b503373ffffffffffffffffffffffffffffffffffffffff167f6aabe3309b819a2115cccbcff8b8284764a6a4db2ff85b12d8cc696b945192cb8a84604051808381526020018281526020019250505060405180910390a2505050505050505050565b60006003806004811115611c2757fe5b601260009054906101000a900460ff166004811115611c4257fe5b141515611c4e57600080fd5b611c5884846146fd565b601484815481101515611c6757fe5b90600052602060002090600c02019150611c81848461407b565b3410151515611c8f57600080fd5b600d548260020154836001015401141515611ca957600080fd5b3373ffffffffffffffffffffffffffffffffffffffff168260000160009054906101000a900473ffffffffffffffffffffffffffffffffffffffff1673ffffffffffffffffffffffffffffffffffffffff16141515611d0757600080fd5b8160020160008154809291906001019190505550816007018054809190600101611d3191906148b3565b50816008018054809190600101611d4891906148df565b5050505050565b601481815481101515611d5e57fe5b90600052602060002090600c02016000915090508060000160009054906101000a900473ffffffffffffffffffffffffffffffffffffffff16908060010154908060020154908060030154908060040160009054906101000a900461ffff16908060050154908060060160009054906101000a900460ff169080600a0154905088565b600c60009054906101000a900473ffffffffffffffffffffffffffffffffffffffff1673ffffffffffffffffffffffffffffffffffffffff163373ffffffffffffffffffffffffffffffffffffffff16141515611e3d57600080fd5b80600360006101000a81548161ffff021916908361ffff16021790555050565b600d5481565b6000601484815481101515611e7457fe5b90600052602060002090600c020160080183815481101515611e9257fe5b906000526020600020906003020160020160008381526020019081526020016000205490509392505050565b600c60009054906101000a900473ffffffffffffffffffffffffffffffffffffffff1673ffffffffffffffffffffffffffffffffffffffff163373ffffffffffffffffffffffffffffffffffffffff16141515611f1a57600080fd5b806005906005611f2b929190614911565b5050565b600080600080601487815481101515611f4457fe5b90600052602060002090600c02019250601360008773ffffffffffffffffffffffffffffffffffffffff1673ffffffffffffffffffffffffffffffffffffffff1681526020019081526020016000209150600d548260020154141580611fb65750600d54836002015484600101540114155b80611fe7575060016004811115611fc957fe5b601260009054906101000a900460ff166004811115611fe457fe5b11155b80611ff95750611ff687611638565b85115b806120045750600085145b8061201157506000600f54145b1561201f5760009350612074565b600f54601154888760405180848152602001838152602001828152602001935050505060405180910390206001900481151561205757fe5b069050816003015481101580156120715750816004015481105b93505b5050509392505050565b600c60009054906101000a900473ffffffffffffffffffffffffffffffffffffffff1673ffffffffffffffffffffffffffffffffffffffff163373ffffffffffffffffffffffffffffffffffffffff161415156120da57600080fd5b8060048190555050565b60006014848154811015156120f557fe5b90600052602060002090600c02016007018381548110151561211357fe5b906000526020600020018281548110151561212a57fe5b906000526020600020906002020160000160009054906101000a900473ffffffffffffffffffffffffffffffffffffffff1690509392505050565b7f7fffffffffffffffffffffffffffffffffffffffffffffffffffffffffffffff81565b600060148281548110151561219a57fe5b90600052602060002090600c02019050600260038111156121b757fe5b8160060160009054906101000a900460ff1660038111156121d457fe5b1415156121e057600080fd5b60038160060160006101000a81548160ff0219169083600381111561220157fe5b02179055508060000160009054906101000a900473ffffffffffffffffffffffffffffffffffffffff1673ffffffffffffffffffffffffffffffffffffffff1663311a6c568383600801846002015481548110151561225c57fe5b9060005260206000209060030201600001546040518363ffffffff167c01000000000000000000000000000000000000000000000000000000000281526004018083815260200182815260200192505050600060405180830381600087803b1580156122c757600080fd5b505af11580156122db573d6000803e3d6000fd5b505050505050565b6000809054906101000a900473ffffffffffffffffffffffffffffffffffffffff168073ffffffffffffffffffffffffffffffffffffffff163373ffffffffffffffffffffffffffffffffffffffff1614151561233f57600080fd5b6000809054906101000a900473ffffffffffffffffffffffffffffffffffffffff1673ffffffffffffffffffffffffffffffffffffffff166323b872dd8630876040518463ffffffff167c0100000000000000000000000000000000000000000000000000000000028152600401808473ffffffffffffffffffffffffffffffffffffffff1673ffffffffffffffffffffffffffffffffffffffff1681526020018373ffffffffffffffffffffffffffffffffffffffff1673ffffffffffffffffffffffffffffffffffffffff1681526020018281526020019350505050602060405180830381600087803b15801561243757600080fd5b505af115801561244b573d6000803e3d6000fd5b505050506040513d602081101561246157600080fd5b8101908080519060200190929190505050151561247d57600080fd5b83601360008773ffffffffffffffffffffffffffffffffffffffff1673ffffffffffffffffffffffffffffffffffffffff168152602001908152602001600020600001600082825401925050819055505050505050565b60008060008060008060008060008060048060048111156124f157fe5b601260009054906101000a900460ff16600481111561250c57fe5b14151561251857600080fd5b60148d81548110151561252757fe5b90600052602060002090600c02019a506001600381111561254457fe5b8b60060160009054906101000a900460ff16600381111561256157fe5b1115151561256e57600080fd5b600d548b600201548c60010154011115151561258957600080fd5b60018b60060160006101000a81548160ff021916908360038111156125aa57fe5b02179055508a6008018b600201548154811015156125c457fe5b90600052602060002090600302016000015499506125e061404d565b9850600097508a600a015496505b8a600201548711151561306357600187018b600b01805490501015612625578a600b0180548091906001016126239190614951565b505b60008a14801561269257508a6008018b6002015481548110151561264557fe5b9060005260206000209060030201600101548b6008018c6002015481548110151561266c57fe5b906000526020600020906003020160020160008081526020019081526020016000205414155b156126dc5760028b600b01888154811015156126aa57fe5b906000526020600020906006020160050160006101000a81548160ff021916908360038111156126d657fe5b02179055505b600060038111156126e957fe5b8b600b01888154811015156126fa57fe5b906000526020600020906006020160050160009054906101000a900460ff16600381111561272457fe5b14156129c2578a600b018781548110151561273b57fe5b90600052602060002090600602016002015495505b8a6007018781548110151561276157fe5b906000526020600020018054905086101561297d578b881015156127845761308a565b8a6007018781548110151561279557fe5b90600052602060002001868154811015156127ac57fe5b9060005260206000209060020201945089856001015414151561290b57601360008660000160009054906101000a900473ffffffffffffffffffffffffffffffffffffffff1673ffffffffffffffffffffffffffffffffffffffff1673ffffffffffffffffffffffffffffffffffffffff168152602001908152602001600020935083600001548910612843578360000154612845565b885b92508284600001600082825403925050819055508460000160009054906101000a900473ffffffffffffffffffffffffffffffffffffffff1673ffffffffffffffffffffffffffffffffffffffff167f72f86a9d9fab69e4814ca24b54076a6e59b7463230974d7b72bed55777fbcf6c8e85600003604051808381526020018281526020019250505060405180910390a2828b600b01888154811015156128e857fe5b90600052602060002090600602016000016000828254019250508190555061293c565b8a600b018781548110151561291c57fe5b906000526020600020906006020160010160008154600101919050819055505b8a600b018781548110151561294d57fe5b90600052602060002090600602016002016000815460010191905081905550876001019750856001019550612750565b60018b600b018881548110151561299057fe5b906000526020600020906006020160050160006101000a81548160ff021916908360038111156129bc57fe5b02179055505b600160038111156129cf57fe5b8b600b01888154811015156129e057fe5b906000526020600020906006020160050160009054906101000a900460ff166003811115612a0a57fe5b1415612e1b5760008b600b0188815481101515612a2357fe5b9060005260206000209060060201600101541415612bb2578a600b0187815481101515612a4c57fe5b90600052602060002090600602016000015460136000600c60009054906101000a900473ffffffffffffffffffffffffffffffffffffffff1673ffffffffffffffffffffffffffffffffffffffff1673ffffffffffffffffffffffffffffffffffffffff16815260200190815260200160002060000160008282540192505081905550600c60009054906101000a900473ffffffffffffffffffffffffffffffffffffffff1673ffffffffffffffffffffffffffffffffffffffff167f72f86a9d9fab69e4814ca24b54076a6e59b7463230974d7b72bed55777fbcf6c8e8d600b018a815481101515612b3b57fe5b906000526020600020906006020160000154604051808381526020018281526020019250505060405180910390a260028b600b0188815481101515612b7c57fe5b906000526020600020906006020160050160006101000a81548160ff02191690836003811115612ba857fe5b0217905550612e1a565b8a600b0187815481101515612bc357fe5b9060005260206000209060060201600101548b600b0188815481101515612be657fe5b906000526020600020906006020160000154811515612c0157fe5b0491508a600b0187815481101515612c1557fe5b90600052602060002090600602016003015495505b8a60070187815481101515612c3b57fe5b9060005260206000200180549050861015612dd5578b88101515612c5e5761308a565b8a60070187815481101515612c6f57fe5b9060005260206000200186815481101515612c8657fe5b906000526020600020906002020194508985600101541415612d9457601360008660000160009054906101000a900473ffffffffffffffffffffffffffffffffffffffff1673ffffffffffffffffffffffffffffffffffffffff1673ffffffffffffffffffffffffffffffffffffffff16815260200190815260200160002093508184600001600082825401925050819055508460000160009054906101000a900473ffffffffffffffffffffffffffffffffffffffff1673ffffffffffffffffffffffffffffffffffffffff167f72f86a9d9fab69e4814ca24b54076a6e59b7463230974d7b72bed55777fbcf6c8e84604051808381526020018281526020019250505060405180910390a25b8760010197508a600b0187815481101515612dab57fe5b90600052602060002090600602016003016000815460010191905081905550856001019550612c2a565b60028b600b0188815481101515612de857fe5b906000526020600020906006020160050160006101000a81548160ff02191690836003811115612e1457fe5b02179055505b5b60026003811115612e2857fe5b8b600b0188815481101515612e3957fe5b906000526020600020906006020160050160009054906101000a900460ff166003811115612e6357fe5b1415612ff8578a600b0187815481101515612e7a57fe5b90600052602060002090600602016004015495505b8a60070187815481101515612ea057fe5b9060005260206000200180549050861015612fb3578b88101515612ec35761308a565b8a60070187815481101515612ed457fe5b9060005260206000200186815481101515612eeb57fe5b90600052602060002090600202019450601360008660000160009054906101000a900473ffffffffffffffffffffffffffffffffffffffff1673ffffffffffffffffffffffffffffffffffffffff1673ffffffffffffffffffffffffffffffffffffffff16815260200190815260200160002093508884600101600082825403925050819055508760010197508a600b0187815481101515612f8957fe5b90600052602060002090600602016004016000815460010191905081905550856001019550612e8f565b60038b600b0188815481101515612fc657fe5b906000526020600020906006020160050160006101000a81548160ff02191690836003811115612ff257fe5b02179055505b60038081111561300457fe5b8b600b018881548110151561301557fe5b906000526020600020906006020160050160009054906101000a900460ff16600381111561303f57fe5b1415613058578a600a0160008154600101919050819055505b8660010196506125ee565b60028b60060160006101000a81548160ff0219169083600381111561308457fe5b02179055505b50505050505050505050505050565b60025481565b600360009054906101000a900461ffff1681565b6005601260009054906101000a900460ff1660048111156130d057fe5b60ff166005811015156130df57fe5b0154600e544203101515156130f357600080fd5b6000600481111561310057fe5b601260009054906101000a900460ff16600481111561311b57fe5b14156131ff5760014301601081905550600160009054906101000a900473ffffffffffffffffffffffffffffffffffffffff1673ffffffffffffffffffffffffffffffffffffffff16637b9c34e06010546040518263ffffffff167c010000000000000000000000000000000000000000000000000000000002815260040180828152602001915050600060405180830381600087803b1580156131be57600080fd5b505af11580156131d2573d6000803e3d6000fd5b505050506001601260006101000a81548160ff021916908360048111156131f557fe5b0217905550613468565b6001600481111561320c57fe5b601260009054906101000a900460ff16600481111561322757fe5b141561333c57600160009054906101000a900473ffffffffffffffffffffffffffffffffffffffff1673ffffffffffffffffffffffffffffffffffffffff16631c73601e6010546040518263ffffffff167c010000000000000000000000000000000000000000000000000000000002815260040180828152602001915050602060405180830381600087803b1580156132c057600080fd5b505af11580156132d4573d6000803e3d6000fd5b505050506040513d60208110156132ea57600080fd5b810190808051906020019092919050505060118190555060006011541415151561331357600080fd5b6002601260006101000a81548160ff0219169083600481111561333257fe5b0217905550613467565b6002600481111561334957fe5b601260009054906101000a900460ff16600481111561336457fe5b1415613393576003601260006101000a81548160ff0219169083600481111561338957fe5b0217905550613466565b600360048111156133a057fe5b601260009054906101000a900460ff1660048111156133bb57fe5b14156133ea576004601260006101000a81548160ff021916908360048111156133e057fe5b0217905550613465565b6004808111156133f657fe5b601260009054906101000a900460ff16600481111561341157fe5b1415613464576000601260006101000a81548160ff0219169083600481111561343657fe5b0217905550600d60008154600101919050819055506000600f81905550600060108190555060006011819055505b5b5b5b5b42600e81905550600d547f68c618b4722a30adfd435aefec043781d40a8a871689115e91a2257ca097fab5601260009054906101000a900460ff16604051808260048111156134b357fe5b60ff16815260200191505060405180910390a2565b60006014848154811015156134d957fe5b90600052602060002090600c0201600701838154811015156134f757fe5b906000526020600020018281548110151561350e57fe5b90600052602060002090600202016001015490509392505050565b600060148381548110151561353a57fe5b90600052602060002090600c020160090160008373ffffffffffffffffffffffffffffffffffffffff1673ffffffffffffffffffffffffffffffffffffffff16815260200190815260200160002054905092915050565b6005816005811015156135a057fe5b016000915090505481565b600c60009054906101000a900473ffffffffffffffffffffffffffffffffffffffff1673ffffffffffffffffffffffffffffffffffffffff163373ffffffffffffffffffffffffffffffffffffffff1614151561360757600080fd5b80600160006101000a81548173ffffffffffffffffffffffffffffffffffffffff021916908373ffffffffffffffffffffffffffffffffffffffff16021790555050565b600080600061365984614781565b9150613664846144f2565b341015151561367257600080fd5b601480548091906001016136869190614983565b925060148381548110151561369757fe5b90600052602060002090600c02019050338160000160006101000a81548173ffffffffffffffffffffffffffffffffffffffff021916908373ffffffffffffffffffffffffffffffffffffffff160217905550600160048111156136f757fe5b601260009054906101000a900460ff16600481111561371257fe5b101561372857600d548160010181905550613737565b6001600d540181600101819055505b848160030181905550818160040160006101000a81548161ffff021916908361ffff160217905550600254816005018190555080600701805480919060010161378091906148b3565b5080600801805480919060010161379791906148df565b50827f141dfc18aa6a56fc816f44f0e9e2f1ebc92b15ab167770e17db5b084c10ed99533604051808273ffffffffffffffffffffffffffffffffffffffff1673ffffffffffffffffffffffffffffffffffffffff16815260200191505060405180910390a2829250505092915050565b6000806000806000806000806000806000600480600481111561382657fe5b601260009054906101000a900460ff16600481111561384157fe5b14151561384d57600080fd5b60148d81548110151561385c57fe5b90600052602060002090600c02019b506000600381111561387957fe5b8c60060160009054906101000a900460ff16600381111561389657fe5b1415156138a257600080fd5b600d548c600201548d6001015401111515156138bd57600080fd5b8b6008018c600201548154811015156138d257fe5b9060005260206000209060030201600001549a506138ee61404d565b9950600098505b8b6002015489111515613e785760008b14158061396e57508b6008018c6002015481548110151561392257fe5b9060005260206000209060030201600101548c6008018d6002015481548110151561394957fe5b9060005260206000209060030201600201600080815260200190815260200160002054145b15613d88576000975060009650600095505b8b6007018981548110151561399157fe5b9060005260206000200180549050861015613b14578b600701898154811015156139b757fe5b90600052602060002001868154811015156139ce57fe5b906000526020600020906002020194508a8560010154141515613b0257601360008660000160009054906101000a900473ffffffffffffffffffffffffffffffffffffffff1673ffffffffffffffffffffffffffffffffffffffff1673ffffffffffffffffffffffffffffffffffffffff168152602001908152602001600020935083600001548a10613a65578360000154613a67565b895b92508284600001600082825403925050819055508460000160009054906101000a900473ffffffffffffffffffffffffffffffffffffffff1673ffffffffffffffffffffffffffffffffffffffff167f72f86a9d9fab69e4814ca24b54076a6e59b7463230974d7b72bed55777fbcf6c8e85600003604051808381526020018281526020019250505060405180910390a28288019750613b09565b8660010196505b856001019550613980565b6000871415613c0c578760136000600c60009054906101000a900473ffffffffffffffffffffffffffffffffffffffff1673ffffffffffffffffffffffffffffffffffffffff1673ffffffffffffffffffffffffffffffffffffffff16815260200190815260200160002060000160008282540192505081905550600c60009054906101000a900473ffffffffffffffffffffffffffffffffffffffff1673ffffffffffffffffffffffffffffffffffffffff167f72f86a9d9fab69e4814ca24b54076a6e59b7463230974d7b72bed55777fbcf6c8e8a604051808381526020018281526020019250505060405180910390a2613d87565b8688811515613c1757fe5b049150600095505b8b60070189815481101515613c3057fe5b9060005260206000200180549050861015613d86578b60070189815481101515613c5657fe5b9060005260206000200186815481101515613c6d57fe5b906000526020600020906002020194508a85600101541415613d7b57601360008660000160009054906101000a900473ffffffffffffffffffffffffffffffffffffffff1673ffffffffffffffffffffffffffffffffffffffff1673ffffffffffffffffffffffffffffffffffffffff16815260200190815260200160002093508184600001600082825401925050819055508460000160009054906101000a900473ffffffffffffffffffffffffffffffffffffffff1673ffffffffffffffffffffffffffffffffffffffff167f72f86a9d9fab69e4814ca24b54076a6e59b7463230974d7b72bed55777fbcf6c8e84604051808381526020018281526020019250505060405180910390a25b856001019550613c1f565b5b5b600095505b8b60070189815481101515613d9e57fe5b9060005260206000200180549050861015613e6d578b60070189815481101515613dc457fe5b9060005260206000200186815481101515613ddb57fe5b90600052602060002090600202019450601360008660000160009054906101000a900473ffffffffffffffffffffffffffffffffffffffff1673ffffffffffffffffffffffffffffffffffffffff1673ffffffffffffffffffffffffffffffffffffffff1681526020019081526020016000209350898460010160008282540392505081905550856001019550613d8d565b8860010198506138f5565b60028c60060160006101000a81548160ff02191690836003811115613e9957fe5b021790555050505050505050505050505050565b600c60009054906101000a900473ffffffffffffffffffffffffffffffffffffffff1673ffffffffffffffffffffffffffffffffffffffff163373ffffffffffffffffffffffffffffffffffffffff16141515613f0957600080fd5b80600c60006101000a81548173ffffffffffffffffffffffffffffffffffffffff021916908373ffffffffffffffffffffffffffffffffffffffff16021790555050565b6000601483815481101515613f5e57fe5b90600052602060002090600c020160080182815481101515613f7c57fe5b906000526020600020906003020160000154905092915050565b60115481565b600160009054906101000a900473ffffffffffffffffffffffffffffffffffffffff1681565b600b5481565b600a5481565b60136020528060005260406000206000915090508060000154908060010154908060020154908060030154908060040154905085565b600060148381548110151561401557fe5b90600052602060002090600c02016008018281548110151561403357fe5b906000526020600020906003020160010154905092915050565b6000612710600454600a540281151561406257fe5b04905090565b601260009054906101000a900460ff1681565b60008060148481548110151561408d57fe5b90600052602060002090600c02019050600b5481600201541015156140d4577f7fffffffffffffffffffffffffffffffffffffffffffffffffffffffffffffff91506140ec565b806005015460016140e486611638565b600202010291505b5092915050565b600080600060148581548110151561410757fe5b90600052602060002090600c02019250601360008773ffffffffffffffffffffffffffffffffffffffff1673ffffffffffffffffffffffffffffffffffffffff16815260200190815260200160002091506002600481111561416557fe5b601260009054906101000a900460ff16600481111561418057fe5b11151561418c57600080fd5b600d548360090160008873ffffffffffffffffffffffffffffffffffffffff1673ffffffffffffffffffffffffffffffffffffffff16815260200190815260200160002054141515156141de57600080fd5b600d548360090160008873ffffffffffffffffffffffffffffffffffffffff1673ffffffffffffffffffffffffffffffffffffffff16815260200190815260200160002081905550614231868686614537565b151561423c57600080fd5b612710600a546002600454875102020281151561425557fe5b0490508160000154811061426d57816000015461426f565b805b90508082600001600082825403925050819055508573ffffffffffffffffffffffffffffffffffffffff167f72f86a9d9fab69e4814ca24b54076a6e59b7463230974d7b72bed55777fbcf6c8683600003604051808381526020018281526020019250505060405180910390a26002818115156142e857fe5b04601360003373ffffffffffffffffffffffffffffffffffffffff1673ffffffffffffffffffffffffffffffffffffffff168152602001908152602001600020600001600082825401925050819055503373ffffffffffffffffffffffffffffffffffffffff167f72f86a9d9fab69e4814ca24b54076a6e59b7463230974d7b72bed55777fbcf6c8660028481151561437d57fe5b04604051808381526020018281526020019250505060405180910390a26002818115156143a657fe5b0460136000600c60009054906101000a900473ffffffffffffffffffffffffffffffffffffffff1673ffffffffffffffffffffffffffffffffffffffff1673ffffffffffffffffffffffffffffffffffffffff16815260200190815260200160002060000160008282540192505081905550600c60009054906101000a900473ffffffffffffffffffffffffffffffffffffffff1673ffffffffffffffffffffffffffffffffffffffff167f72f86a9d9fab69e4814ca24b54076a6e59b7463230974d7b72bed55777fbcf6c8660028481151561447f57fe5b04604051808381526020018281526020019250505060405180910390a23373ffffffffffffffffffffffffffffffffffffffff166108fc84600501548651029081150290604051600060405180830381858888f193505050501580156144e9573d6000803e3d6000fd5b50505050505050565b600060025461450083614781565b61ffff16029050919050565b60045481565b6000809054906101000a900473ffffffffffffffffffffffffffffffffffffffff1681565b6000806000806000806000809550601360008b73ffffffffffffffffffffffffffffffffffffffff1673ffffffffffffffffffffffffffffffffffffffff168152602001908152602001600020945060148981548110151561459557fe5b90600052602060002090600c020193506145ae89611638565b9250600d5485600201541415156145c857600096506146f0565b600d5484600201548560010154011415156145e657600096506146f0565b600160048111156145f357fe5b601260009054906101000a900460ff16600481111561460e57fe5b11151561461e57600096506146f0565b600091505b87518210156146eb5785888381518110151561463b57fe5b9060200190602002015111151561465557600096506146f0565b878281518110151561466357fe5b9060200190602002015195508286111561468057600096506146f0565b600f546011548a886040518084815260200183815260200182815260200193505050506040518091039020600190048115156146b857fe5b069050846003015481101515156146ce57600080fd5b8460040154811015156146e057600080fd5b816001019150614623565b600196505b5050505050509392505050565b8181614709828261407b565b341015151561471757600080fd5b837f9c9b64db9e130f48381bf697abf638e73117dbfbfd7a4484f2da3ba188f4187d33604051808273ffffffffffffffffffffffffffffffffffffffff1673ffffffffffffffffffffffffffffffffffffffff16815260200191505060405180910390a250505050565b60006002825110156147a557600360009054906101000a900461ffff1690506148ae565b8160018151811015156147b457fe5b9060200101517f010000000000000000000000000000000000000000000000000000000000000090047f0100000000000000000000000000000000000000000000000000000000000000027f01000000000000000000000000000000000000000000000000000000000000009004600883600081518110151561483357fe5b9060200101517f010000000000000000000000000000000000000000000000000000000000000090047f0100000000000000000000000000000000000000000000000000000000000000027f0100000000000000000000000000000000000000000000000000000000000000900461ffff169060020a020190505b919050565b8154818355818111156148da578183600052602060002091820191016148d991906149b5565b5b505050565b81548183558181111561490c5760030281600302836000526020600020918201910161490b91906149e1565b5b505050565b8260058101928215614940579160200282015b8281111561493f578251825591602001919060010190614924565b5b50905061494d9190614a10565b5090565b81548183558181111561497e5760060281600602836000526020600020918201910161497d9190614a35565b5b505050565b8154818355818111156149b057600c0281600c0283600052602060002091820191016149af9190614a90565b5b505050565b6149de91905b808211156149da57600081816149d19190614b57565b506001016149bb565b5090565b90565b614a0d91905b80821115614a09576000808201600090556001820160009055506003016149e7565b5090565b90565b614a3291905b80821115614a2e576000816000905550600101614a16565b5090565b90565b614a8d91905b80821115614a895760008082016000905560018201600090556002820160009055600382016000905560048201600090556005820160006101000a81549060ff021916905550600601614a3b565b5090565b90565b614b5491905b80821115614b5057600080820160006101000a81549073ffffffffffffffffffffffffffffffffffffffff02191690556001820160009055600282016000905560038201600090556004820160006101000a81549061ffff021916905560058201600090556006820160006101000a81549060ff0219169055600782016000614b1f9190614b7b565b600882016000614b2f9190614b9c565b600a820160009055600b82016000614b479190614bc0565b50600c01614a96565b5090565b90565b5080546000825560020290600052602060002090810190614b789190614be4565b50565b5080546000825590600052602060002090810190614b9991906149b5565b50565b5080546000825560030290600052602060002090810190614bbd91906149e1565b50565b5080546000825560060290600052602060002090810190614be19190614a35565b50565b614c2f91905b80821115614c2b57600080820160006101000a81549073ffffffffffffffffffffffffffffffffffffffff0219169055600182016000905550600201614bea565b5090565b905600a165627a7a723058200241f0ed4255d11836cbf608cc7c6afa90cca1827bdbaf9d1f17d0934356cbda0029",
  "source": "/**\n *  @title Kleros\n *  @author Clment Lesaege - <clement@lesaege.com>\n *  This code implements a simple version of Kleros.\n *  Bug Bounties: This code hasn't undertaken a bug bounty program yet.\n */\n\npragma solidity ^0.4.24;\n\nimport \"kleros-interaction/contracts/standard/arbitration/Arbitrator.sol\";\nimport {MiniMeTokenERC20 as Pinakion} from \"kleros-interaction/contracts/standard/arbitration/ArbitrableTokens/MiniMeTokenERC20.sol\";\nimport \"kleros-interaction/contracts/standard/rng/RNG.sol\";\nimport {ApproveAndCallFallBack} from \"minimetoken/contracts/MiniMeToken.sol\";\n\n\n\ncontract Kleros is Arbitrator, ApproveAndCallFallBack {\n\n    // **************************** //\n    // *    Contract variables    * //\n    // **************************** //\n\n    // Variables which should not change after initialization.\n    Pinakion public pinakion;\n    uint public constant NON_PAYABLE_AMOUNT = (2**256 - 2) / 2; // An astronomic amount, practically can't be paid.\n\n    // Variables which will subject to the governance mechanism.\n    // Note they will only be able to be changed during the activation period (because a session assumes they don't change after it).\n    RNG public rng; // Random Number Generator used to draw jurors.\n    uint public arbitrationFeePerJuror = 0.05 ether; // The fee which will be paid to each juror.\n    uint16 public defaultNumberJuror = 3; // Number of drawn jurors unless specified otherwise.\n    uint public minActivatedToken = 0.1 * 1e18; // Minimum of tokens to be activated (in basic units).\n    uint[5] public timePerPeriod; // The minimum time each period lasts (seconds).\n    uint public alpha = 2000; // alpha in  (1 / 10 000).\n    uint constant ALPHA_DIVISOR = 1e4; // Amount we need to divided alpha in  to get the float value of alpha.\n    uint public maxAppeals = 5; // Number of times a dispute can be appealed. When exceeded appeal cost becomes NON_PAYABLE_AMOUNT.\n    // Initially, the governor will be an address controlled by the Kleros team. At a later stage,\n    // the governor will be switched to a governance contract with liquid voting.\n    address public governor; // Address of the governor contract.\n\n    // Variables changing during day to day interaction.\n    uint public session = 1;      // Current session of the court.\n    uint public lastPeriodChange; // The last time we changed of period (seconds).\n    uint public segmentSize;      // Size of the segment of activated tokens.\n    uint public rnBlock;          // The block linked with the RN which is requested.\n    uint public randomNumber;     // Random number of the session.\n\n    enum Period {\n        Activation, // When juror can deposit their tokens and parties give evidences.\n        Draw,       // When jurors are drawn at random, note that this period is fast.\n        Vote,       // Where jurors can vote on disputes.\n        Appeal,     // When parties can appeal the rulings.\n        Execution   // When where token redistribution occurs and Kleros call the arbitrated contracts.\n    }\n\n    Period public period;\n\n    struct Juror {\n        uint balance;      // The amount of tokens the contract holds for this juror.\n        uint atStake;      // Total number of tokens the jurors can loose in disputes they are drawn in. Those tokens are locked. Note that we can have atStake > balance but it should be statistically unlikely and does not pose issues.\n        uint lastSession;  // Last session the tokens were activated.\n        uint segmentStart; // Start of the segment of activated tokens.\n        uint segmentEnd;   // End of the segment of activated tokens.\n    }\n\n    mapping (address => Juror) public jurors;\n\n    struct Vote {\n        address account; // The juror who casted the vote.\n        uint ruling;     // The ruling which was given.\n    }\n\n    struct VoteCounter {\n        uint winningChoice; // The choice which currently has the highest amount of votes. Is 0 in case of a tie.\n        uint winningCount;  // The number of votes for winningChoice. Or for the choices which are tied.\n        mapping (uint => uint) voteCount; // voteCount[choice] is the number of votes for choice.\n    }\n\n    enum DisputeState {\n        Open,       // The dispute is opened but the outcome is not available yet (this include when jurors voted but appeal is still possible).\n        Resolving,  // The token repartition has started. Note that if it's done in just one call, this state is skipped.\n        Executable, // The arbitrated contract can be called to enforce the decision.\n        Executed    // Everything has been done and the dispute can't be interacted with anymore.\n    }\n\n    struct Dispute {\n        Arbitrable arbitrated;       // Contract to be arbitrated.\n        uint session;                // First session the dispute was schedule.\n        uint appeals;                // Number of appeals.\n        uint choices;                // The number of choices available to the jurors.\n        uint16 initialNumberJurors;  // The initial number of jurors.\n        uint arbitrationFeePerJuror; // The fee which will be paid to each juror.\n        DisputeState state;          // The state of the dispute.\n        Vote[][] votes;              // The votes in the form vote[appeals][voteID].\n        VoteCounter[] voteCounter;   // The vote counters in the form voteCounter[appeals].\n        mapping (address => uint) lastSessionVote; // Last session a juror has voted on this dispute. Is 0 if he never did.\n        uint currentAppealToRepartition; // The current appeal we are repartitioning.\n        AppealsRepartitioned[] appealsRepartitioned; // Track a partially repartitioned appeal in the form AppealsRepartitioned[appeal].\n    }\n\n    enum RepartitionStage { // State of the token repartition if oneShotTokenRepartition would throw because there are too many votes.\n        Incoherent,\n        Coherent,\n        AtStake,\n        Complete\n    }\n\n    struct AppealsRepartitioned {\n        uint totalToRedistribute;   // Total amount of tokens we have to redistribute.\n        uint nbCoherent;            // Number of coherent jurors for session.\n        uint currentIncoherentVote; // Current vote for the incoherent loop.\n        uint currentCoherentVote;   // Current vote we need to count.\n        uint currentAtStakeVote;    // Current vote we need to count.\n        RepartitionStage stage;     // Use with multipleShotTokenRepartition if oneShotTokenRepartition would throw.\n    }\n\n    Dispute[] public disputes;\n\n    // **************************** //\n    // *          Events          * //\n    // **************************** //\n\n    /** @dev Emitted when we pass to a new period.\n     *  @param _period The new period.\n     *  @param _session The current session.\n     */\n    event NewPeriod(Period _period, uint indexed _session);\n\n    /** @dev Emitted when a juror wins or loses tokens.\n      * @param _account The juror affected.\n      * @param _disputeID The ID of the dispute.\n      * @param _amount The amount of parts of token which was won. Can be negative for lost amounts.\n      */\n    event TokenShift(address indexed _account, uint _disputeID, int _amount);\n\n    /** @dev Emited when a juror wins arbitration fees.\n      * @param _account The account affected.\n      * @param _disputeID The ID of the dispute.\n      * @param _amount The amount of weis which was won.\n      */\n    event ArbitrationReward(address indexed _account, uint _disputeID, uint _amount);\n\n    // **************************** //\n    // *         Modifiers        * //\n    // **************************** //\n    modifier onlyBy(address _account) {require(msg.sender == _account); _;}\n    modifier onlyDuring(Period _period) {require(period == _period); _;}\n    modifier onlyGovernor() {require(msg.sender == governor); _;}\n\n\n    /** @dev Constructor.\n     *  @param _pinakion The address of the pinakion contract.\n     *  @param _rng The random number generator which will be used.\n     *  @param _timePerPeriod The minimal time for each period (seconds).\n     *  @param _governor Address of the governor contract.\n     */\n    constructor(Pinakion _pinakion, RNG _rng, uint[5] _timePerPeriod, address _governor) public {\n        pinakion = _pinakion;\n        rng = _rng;\n        lastPeriodChange = now;\n        timePerPeriod = _timePerPeriod;\n        governor = _governor;\n    }\n\n    // **************************** //\n    // *  Functions interacting   * //\n    // *  with Pinakion contract  * //\n    // **************************** //\n\n    /** @dev Callback of approveAndCall - transfer pinakions of a juror in the contract. Should be called by the pinakion contract. TRUSTED.\n     *  @param _from The address making the transfer.\n     *  @param _amount Amount of tokens to transfer to Kleros (in basic units).\n     */\n    function receiveApproval(address _from, uint _amount, address, bytes) public onlyBy(pinakion) {\n        require(pinakion.transferFrom(_from, this, _amount));\n\n        jurors[_from].balance += _amount;\n    }\n\n    /** @dev Withdraw tokens. Note that we can't withdraw the tokens which are still atStake. \n     *  Jurors can't withdraw their tokens if they have deposited some during this session.\n     *  This is to prevent jurors from withdrawing tokens they could loose.\n     *  @param _value The amount to withdraw.\n     */\n    function withdraw(uint _value) public {\n        Juror storage juror = jurors[msg.sender];\n        require(juror.atStake <= juror.balance); // Make sure that there is no more at stake than owned to avoid overflow.\n        require(_value <= juror.balance-juror.atStake);\n        require(juror.lastSession != session);\n\n        juror.balance -= _value;\n        require(pinakion.transfer(msg.sender,_value));\n    }\n\n    // **************************** //\n    // *      Court functions     * //\n    // *    Modifying the state   * //\n    // **************************** //\n\n    /** @dev To call to go to a new period. TRUSTED.\n     */\n    function passPeriod() public {\n        require(now-lastPeriodChange >= timePerPeriod[uint8(period)]);\n\n        if (period == Period.Activation) {\n            rnBlock = block.number + 1;\n            rng.requestRN(rnBlock);\n            period = Period.Draw;\n        } else if (period == Period.Draw) {\n            randomNumber = rng.getUncorrelatedRN(rnBlock);\n            require(randomNumber != 0);\n            period = Period.Vote;\n        } else if (period == Period.Vote) {\n            period = Period.Appeal;\n        } else if (period == Period.Appeal) {\n            period = Period.Execution;\n        } else if (period == Period.Execution) {\n            period = Period.Activation;\n            ++session;\n            segmentSize = 0;\n            rnBlock = 0;\n            randomNumber = 0;\n        }\n\n\n        lastPeriodChange = now;\n        NewPeriod(period, session);\n    }\n\n\n    /** @dev Deposit tokens in order to have chances of being drawn. Note that once tokens are deposited, \n     *  there is no possibility of depositing more.\n     *  @param _value Amount of tokens (in basic units) to deposit.\n     */\n    function activateTokens(uint _value) public onlyDuring(Period.Activation) {\n        Juror storage juror = jurors[msg.sender];\n        require(_value <= juror.balance);\n        require(_value >= minActivatedToken);\n        require(juror.lastSession != session); // Verify that tokens were not already activated for this session.\n\n        juror.lastSession = session;\n        juror.segmentStart = segmentSize;\n        segmentSize += _value;\n        juror.segmentEnd = segmentSize;\n\n    }\n\n    /** @dev Vote a ruling. Juror must input the draw ID he was drawn.\n     *  Note that the complexity is O(d), where d is amount of times the juror was drawn.\n     *  Since being drawn multiple time is a rare occurrence and that a juror can always vote with less weight than it has, it is not a problem.\n     *  But note that it can lead to arbitration fees being kept by the contract and never distributed.\n     *  @param _disputeID The ID of the dispute the juror was drawn.\n     *  @param _ruling The ruling given.\n     *  @param _draws The list of draws the juror was drawn. Draw numbering starts at 1 and the numbers should be increasing.\n     */\n    function voteRuling(uint _disputeID, uint _ruling, uint[] _draws) public onlyDuring(Period.Vote) {\n        Dispute storage dispute = disputes[_disputeID];\n        Juror storage juror = jurors[msg.sender];\n        VoteCounter storage voteCounter = dispute.voteCounter[dispute.appeals];\n        require(dispute.lastSessionVote[msg.sender] != session); // Make sure juror hasn't voted yet.\n        require(_ruling <= dispute.choices);\n        // Note that it throws if the draws are incorrect.\n        require(validDraws(msg.sender, _disputeID, _draws));\n\n        dispute.lastSessionVote[msg.sender] = session;\n        voteCounter.voteCount[_ruling] += _draws.length;\n        if (voteCounter.winningCount < voteCounter.voteCount[_ruling]) {\n            voteCounter.winningCount = voteCounter.voteCount[_ruling];\n            voteCounter.winningChoice = _ruling;\n        } else if (voteCounter.winningCount==voteCounter.voteCount[_ruling] && _draws.length!=0) { // Verify draw length to be non-zero to avoid the possibility of setting tie by casting 0 votes.\n            voteCounter.winningChoice = 0; // It's currently a tie.\n        }\n        for (uint i = 0; i < _draws.length; ++i) {\n            dispute.votes[dispute.appeals].push(Vote({\n                account: msg.sender,\n                ruling: _ruling\n            }));\n        }\n\n        juror.atStake += _draws.length * getStakePerDraw();\n        uint feeToPay = _draws.length * dispute.arbitrationFeePerJuror;\n        msg.sender.transfer(feeToPay);\n        ArbitrationReward(msg.sender, _disputeID, feeToPay);\n    }\n\n    /** @dev Steal part of the tokens and the arbitration fee of a juror who failed to vote.\n     *  Note that a juror who voted but without all his weight can't be penalized.\n     *  It is possible to not penalize with the maximum weight.\n     *  But note that it can lead to arbitration fees being kept by the contract and never distributed.\n     *  @param _jurorAddress Address of the juror to steal tokens from.\n     *  @param _disputeID The ID of the dispute the juror was drawn.\n     *  @param _draws The list of draws the juror was drawn. Numbering starts at 1 and the numbers should be increasing.\n     */\n    function penalizeInactiveJuror(address _jurorAddress, uint _disputeID, uint[] _draws) public {\n        Dispute storage dispute = disputes[_disputeID];\n        Juror storage inactiveJuror = jurors[_jurorAddress];\n        require(period > Period.Vote);\n        require(dispute.lastSessionVote[_jurorAddress] != session); // Verify the juror hasn't voted.\n        dispute.lastSessionVote[_jurorAddress] = session; // Update last session to avoid penalizing multiple times.\n        require(validDraws(_jurorAddress, _disputeID, _draws));\n        uint penality = _draws.length * minActivatedToken * 2 * alpha / ALPHA_DIVISOR;\n        penality = (penality < inactiveJuror.balance) ? penality : inactiveJuror.balance; // Make sure the penality is not higher than the balance.\n        inactiveJuror.balance -= penality;\n        TokenShift(_jurorAddress, _disputeID, -int(penality));\n        jurors[msg.sender].balance += penality / 2; // Give half of the penalty to the caller.\n        TokenShift(msg.sender, _disputeID, int(penality / 2));\n        jurors[governor].balance += penality / 2; // The other half to the governor.\n        TokenShift(governor, _disputeID, int(penality / 2));\n        msg.sender.transfer(_draws.length*dispute.arbitrationFeePerJuror); // Give the arbitration fees to the caller.\n    }\n\n    /** @dev Execute all the token repartition.\n     *  Note that this function could consume to much gas if there is too much votes. \n     *  It is O(v), where v is the number of votes for this dispute.\n     *  In the next version, there will also be a function to execute it in multiple calls \n     *  (but note that one shot execution, if possible, is less expensive).\n     *  @param _disputeID ID of the dispute.\n     */\n    function oneShotTokenRepartition(uint _disputeID) public onlyDuring(Period.Execution) {\n        Dispute storage dispute = disputes[_disputeID];\n        require(dispute.state == DisputeState.Open);\n        require(dispute.session+dispute.appeals <= session);\n\n        uint winningChoice = dispute.voteCounter[dispute.appeals].winningChoice;\n        uint amountShift = getStakePerDraw();\n        for (uint i = 0; i <= dispute.appeals; ++i) {\n            // If the result is not a tie, some parties are incoherent. Note that 0 (refuse to arbitrate) winning is not a tie.\n            // Result is a tie if the winningChoice is 0 (refuse to arbitrate) and the choice 0 is not the most voted choice.\n            // Note that in case of a \"tie\" among some choices including 0, parties who did not vote 0 are considered incoherent.\n            if (winningChoice!=0 || (dispute.voteCounter[dispute.appeals].voteCount[0] == dispute.voteCounter[dispute.appeals].winningCount)) {\n                uint totalToRedistribute = 0;\n                uint nbCoherent = 0;\n                // First loop to penalize the incoherent votes.\n                for (uint j = 0; j < dispute.votes[i].length; ++j) {\n                    Vote storage vote = dispute.votes[i][j];\n                    if (vote.ruling != winningChoice) {\n                        Juror storage juror = jurors[vote.account];\n                        uint penalty = amountShift<juror.balance ? amountShift : juror.balance;\n                        juror.balance -= penalty;\n                        TokenShift(vote.account, _disputeID, int(-penalty));\n                        totalToRedistribute += penalty;\n                    } else {\n                        ++nbCoherent;\n                    }\n                }\n                if (nbCoherent == 0) { // No one was coherent at this stage. Give the tokens to the governor.\n                    jurors[governor].balance += totalToRedistribute;\n                    TokenShift(governor, _disputeID, int(totalToRedistribute));\n                } else { // otherwise, redistribute them.\n                    uint toRedistribute = totalToRedistribute / nbCoherent; // Note that few fractions of tokens can be lost but due to the high amount of decimals we don't care.\n                    // Second loop to redistribute.\n                    for (j = 0; j < dispute.votes[i].length; ++j) {\n                        vote = dispute.votes[i][j];\n                        if (vote.ruling == winningChoice) {\n                            juror = jurors[vote.account];\n                            juror.balance += toRedistribute;\n                            TokenShift(vote.account, _disputeID, int(toRedistribute));\n                        }\n                    }\n                }\n            }\n            // Third loop to lower the atStake in order to unlock tokens.\n            for (j = 0; j < dispute.votes[i].length; ++j) {\n                vote = dispute.votes[i][j];\n                juror = jurors[vote.account];\n                juror.atStake -= amountShift; // Note that it can't underflow due to amountShift not changing between vote and redistribution.\n            }\n        }\n        dispute.state = DisputeState.Executable; // Since it was solved in one shot, go directly to the executable step.\n    }\n\n    /** @dev Execute token repartition on a dispute for a specific number of votes.\n     *  This should only be called if oneShotTokenRepartition will throw because there are too many votes (will use too much gas).\n     *  Note that There are 3 iterations per vote. e.g. A dispute with 1 appeal (2 sessions) and 3 votes per session will have 18 iterations\n     *  @param _disputeID ID of the dispute.\n     *  @param _maxIterations the maxium number of votes to repartition in this iteration\n     */\n    function multipleShotTokenRepartition(uint _disputeID, uint _maxIterations) public onlyDuring(Period.Execution) {\n        Dispute storage dispute = disputes[_disputeID];\n        require(dispute.state <= DisputeState.Resolving);\n        require(dispute.session+dispute.appeals <= session);\n        dispute.state = DisputeState.Resolving; // Mark as resolving so oneShotTokenRepartition cannot be called on dispute.\n\n        uint winningChoice = dispute.voteCounter[dispute.appeals].winningChoice;\n        uint amountShift = getStakePerDraw();\n        uint currentIterations = 0; // Total votes we have repartitioned this iteration.\n        for (uint i = dispute.currentAppealToRepartition; i <= dispute.appeals; ++i) {\n            // Allocate space for new AppealsRepartitioned.\n            if (dispute.appealsRepartitioned.length < i+1) {\n                dispute.appealsRepartitioned.length++;\n            }\n\n            // If the result is a tie, no parties are incoherent and no need to move tokens. Note that 0 (refuse to arbitrate) winning is not a tie.\n            if (winningChoice==0 && (dispute.voteCounter[dispute.appeals].voteCount[0] != dispute.voteCounter[dispute.appeals].winningCount)) {\n                // If ruling is a tie we can skip to at stake.\n                dispute.appealsRepartitioned[i].stage = RepartitionStage.AtStake;\n            }\n\n            // First loop to penalize the incoherent votes.\n            if (dispute.appealsRepartitioned[i].stage == RepartitionStage.Incoherent) {\n                for (uint j = dispute.appealsRepartitioned[i].currentIncoherentVote; j < dispute.votes[i].length; ++j) {\n                    if (currentIterations >= _maxIterations) {\n                        return;\n                    }\n                    Vote storage vote = dispute.votes[i][j];\n                    if (vote.ruling != winningChoice) {\n                        Juror storage juror = jurors[vote.account];\n                        uint penalty = amountShift<juror.balance ? amountShift : juror.balance;\n                        juror.balance -= penalty;\n                        TokenShift(vote.account, _disputeID, int(-penalty));\n                        dispute.appealsRepartitioned[i].totalToRedistribute += penalty;\n                    } else {\n                        ++dispute.appealsRepartitioned[i].nbCoherent;\n                    }\n\n                    ++dispute.appealsRepartitioned[i].currentIncoherentVote;\n                    ++currentIterations;\n                }\n\n                dispute.appealsRepartitioned[i].stage = RepartitionStage.Coherent;\n            }\n\n            // Second loop to reward coherent voters\n            if (dispute.appealsRepartitioned[i].stage == RepartitionStage.Coherent) {\n                if (dispute.appealsRepartitioned[i].nbCoherent == 0) { // No one was coherent at this stage. Give the tokens to the governor.\n                    jurors[governor].balance += dispute.appealsRepartitioned[i].totalToRedistribute;\n                    TokenShift(governor, _disputeID, int(dispute.appealsRepartitioned[i].totalToRedistribute));\n                    dispute.appealsRepartitioned[i].stage = RepartitionStage.AtStake;\n                } else { // Otherwise, redistribute them.\n                    uint toRedistribute = dispute.appealsRepartitioned[i].totalToRedistribute / dispute.appealsRepartitioned[i].nbCoherent; // Note that few fractions of tokens can be lost but due to the high amount of decimals we don't care.\n                    // Second loop to redistribute.\n                    for (j = dispute.appealsRepartitioned[i].currentCoherentVote; j < dispute.votes[i].length; ++j) {\n                        if (currentIterations >= _maxIterations) {\n                            return;\n                        }\n                        vote = dispute.votes[i][j];\n                        if (vote.ruling == winningChoice) {\n                            juror = jurors[vote.account];\n                            juror.balance += toRedistribute;\n                            TokenShift(vote.account, _disputeID, int(toRedistribute));\n                        }\n\n                        ++currentIterations;\n                        ++dispute.appealsRepartitioned[i].currentCoherentVote;\n                    }\n\n                    dispute.appealsRepartitioned[i].stage = RepartitionStage.AtStake;\n                }\n            }\n\n            if (dispute.appealsRepartitioned[i].stage == RepartitionStage.AtStake) {\n                // Third loop to lower the atStake in order to unlock tokens.\n                for (j = dispute.appealsRepartitioned[i].currentAtStakeVote; j < dispute.votes[i].length; ++j) {\n                    if (currentIterations >= _maxIterations) {\n                        return;\n                    }\n                    vote = dispute.votes[i][j];\n                    juror = jurors[vote.account];\n                    juror.atStake -= amountShift; // Note that it can't underflow due to amountShift not changing between vote and redistribution.\n\n                    ++currentIterations;\n                    ++dispute.appealsRepartitioned[i].currentAtStakeVote;\n                }\n\n                dispute.appealsRepartitioned[i].stage = RepartitionStage.Complete;\n            }\n\n            if (dispute.appealsRepartitioned[i].stage == RepartitionStage.Complete) {\n                ++dispute.currentAppealToRepartition;\n            }\n        }\n\n        dispute.state = DisputeState.Executable;\n    }\n\n    // **************************** //\n    // *      Court functions     * //\n    // *     Constant and Pure    * //\n    // **************************** //\n\n    /** @dev Return the amount of jurors which are or will be drawn in the dispute.\n     *  The number of jurors is doubled and 1 is added at each appeal. We have proven the formula by recurrence.\n     *  This avoid having a variable number of jurors which would be updated in order to save gas.\n     *  @param _disputeID The ID of the dispute we compute the amount of jurors.\n     *  @return nbJurors The number of jurors which are drawn.\n     */\n    function amountJurors(uint _disputeID) public view returns (uint nbJurors) {\n        Dispute storage dispute = disputes[_disputeID];\n        return (dispute.initialNumberJurors + 1) * 2**dispute.appeals - 1;\n    }\n\n    /** @dev Must be used to verify that a juror has been draw at least _draws.length times.\n     *  We have to require the user to specify the draws that lead the juror to be drawn.\n     *  Because doing otherwise (looping through all draws) could consume too much gas.\n     *  @param _jurorAddress Address of the juror we want to verify draws.\n     *  @param _disputeID The ID of the dispute the juror was drawn.\n     *  @param _draws The list of draws the juror was drawn. It draw numbering starts at 1 and the numbers should be increasing.\n     *  Note that in most cases this list will just contain 1 number.\n     *  @param valid true if the draws are valid.\n     */\n    function validDraws(address _jurorAddress, uint _disputeID, uint[] _draws) public view returns (bool valid) {\n        uint draw = 0;\n        Juror storage juror = jurors[_jurorAddress];\n        Dispute storage dispute = disputes[_disputeID];\n        uint nbJurors = amountJurors(_disputeID);\n\n        if (juror.lastSession != session) return false; // Make sure that the tokens were deposited for this session.\n        if (dispute.session+dispute.appeals != session) return false; // Make sure there is currently a dispute.\n        if (period <= Period.Draw) return false; // Make sure that jurors are already drawn.\n        for (uint i = 0; i < _draws.length; ++i) {\n            if (_draws[i] <= draw) return false; // Make sure that draws are always increasing to avoid someone inputing the same multiple times.\n            draw = _draws[i];\n            if (draw > nbJurors) return false;\n            uint position = uint(keccak256(randomNumber, _disputeID, draw)) % segmentSize; // Random position on the segment for draw.\n            require(position >= juror.segmentStart);\n            require(position < juror.segmentEnd);\n        }\n\n        return true;\n    }\n\n    // **************************** //\n    // *   Arbitrator functions   * //\n    // *   Modifying the state    * //\n    // **************************** //\n\n    /** @dev Create a dispute. Must be called by the arbitrable contract.\n     *  Must be paid at least arbitrationCost().\n     *  @param _choices Amount of choices the arbitrator can make in this dispute.\n     *  @param _extraData Null for the default number. Otherwise, first 16 bytes will be used to return the number of jurors.\n     *  @return disputeID ID of the dispute created.\n     */\n    function createDispute(uint _choices, bytes _extraData) public payable returns (uint disputeID) {\n        uint16 nbJurors = extraDataToNbJurors(_extraData);\n        require(msg.value >= arbitrationCost(_extraData));\n\n        disputeID = disputes.length++;\n        Dispute storage dispute = disputes[disputeID];\n        dispute.arbitrated = Arbitrable(msg.sender);\n        if (period < Period.Draw) // If drawing did not start schedule it for the current session.\n            dispute.session = session;\n        else // Otherwise schedule it for the next one.\n            dispute.session = session+1;\n        dispute.choices = _choices;\n        dispute.initialNumberJurors = nbJurors;\n        dispute.arbitrationFeePerJuror = arbitrationFeePerJuror; // We store it as the general fee can be changed through the governance mechanism.\n        dispute.votes.length++;\n        dispute.voteCounter.length++;\n\n        DisputeCreation(disputeID, Arbitrable(msg.sender));\n        return disputeID;\n    }\n\n    /** @dev Appeal a ruling. Note that it has to be called before the arbitrator contract calls rule.\n     *  @param _disputeID ID of the dispute to be appealed.\n     *  @param _extraData Standard but not used by this contract.\n     */\n    function appeal(uint _disputeID, bytes _extraData) public payable onlyDuring(Period.Appeal) {\n        super.appeal(_disputeID,_extraData);\n        Dispute storage dispute = disputes[_disputeID];\n        require(msg.value >= appealCost(_disputeID, _extraData));\n        require(dispute.session+dispute.appeals == session); // Dispute of the current session.\n        require(dispute.arbitrated == msg.sender);\n        \n        dispute.appeals++;\n        dispute.votes.length++;\n        dispute.voteCounter.length++;\n    }\n\n    /** @dev Execute the ruling of a dispute which is in the state executable. UNTRUSTED.\n     *  @param disputeID ID of the dispute to execute the ruling.\n     */\n    function executeRuling(uint disputeID) public {\n        Dispute storage dispute = disputes[disputeID];\n        require(dispute.state == DisputeState.Executable);\n\n        dispute.state = DisputeState.Executed;\n        dispute.arbitrated.rule(disputeID, dispute.voteCounter[dispute.appeals].winningChoice);\n    }\n\n    // **************************** //\n    // *   Arbitrator functions   * //\n    // *    Constant and pure     * //\n    // **************************** //\n\n    /** @dev Compute the cost of arbitration. It is recommended not to increase it often, \n     *  as it can be highly time and gas consuming for the arbitrated contracts to cope with fee augmentation.\n     *  @param _extraData Null for the default number. Other first 16 bits will be used to return the number of jurors.\n     *  @return fee Amount to be paid.\n     */\n    function arbitrationCost(bytes _extraData) public view returns (uint fee) {\n        return extraDataToNbJurors(_extraData) * arbitrationFeePerJuror;\n    }\n\n    /** @dev Compute the cost of appeal. It is recommended not to increase it often, \n     *  as it can be highly time and gas consuming for the arbitrated contracts to cope with fee augmentation.\n     *  @param _disputeID ID of the dispute to be appealed.\n     *  @param _extraData Is not used there.\n     *  @return fee Amount to be paid.\n     */\n    function appealCost(uint _disputeID, bytes _extraData) public view returns (uint fee) {\n        Dispute storage dispute = disputes[_disputeID];\n\n        if(dispute.appeals >= maxAppeals) return NON_PAYABLE_AMOUNT;\n\n        return (2*amountJurors(_disputeID) + 1) * dispute.arbitrationFeePerJuror;\n    }\n\n    /** @dev Compute the amount of jurors to be drawn.\n     *  @param _extraData Null for the default number. Other first 16 bits will be used to return the number of jurors.\n     *  Note that it does not check that the number of jurors is odd, but users are advised to choose a odd number of jurors.\n     */\n    function extraDataToNbJurors(bytes _extraData) internal view returns (uint16 nbJurors) {\n        if (_extraData.length < 2)\n            return defaultNumberJuror;\n        else\n            return (uint16(_extraData[0]) << 8) + uint16(_extraData[1]);\n    }\n\n    /** @dev Compute the minimum activated pinakions in alpha.\n     *  Note there may be multiple draws for a single user on a single dispute.\n     */\n    function getStakePerDraw() public view returns (uint minActivatedTokenInAlpha) {\n        return (alpha * minActivatedToken) / ALPHA_DIVISOR;\n    }\n\n\n    // **************************** //\n    // *     Constant getters     * //\n    // **************************** //\n\n    /** @dev Getter for account in Vote.\n     *  @param _disputeID ID of the dispute.\n     *  @param _appeals Which appeal (or 0 for the initial session).\n     *  @param _voteID The ID of the vote for this appeal (or initial session).\n     *  @return account The address of the voter.\n     */\n    function getVoteAccount(uint _disputeID, uint _appeals, uint _voteID) public view returns (address account) {\n        return disputes[_disputeID].votes[_appeals][_voteID].account;\n    }\n\n    /** @dev Getter for ruling in Vote.\n     *  @param _disputeID ID of the dispute.\n     *  @param _appeals Which appeal (or 0 for the initial session).\n     *  @param _voteID The ID of the vote for this appeal (or initial session).\n     *  @return ruling The ruling given by the voter.\n     */\n    function getVoteRuling(uint _disputeID, uint _appeals, uint _voteID) public view returns (uint ruling) {\n        return disputes[_disputeID].votes[_appeals][_voteID].ruling;\n    }\n\n    /** @dev Getter for winningChoice in VoteCounter.\n     *  @param _disputeID ID of the dispute.\n     *  @param _appeals Which appeal (or 0 for the initial session).\n     *  @return winningChoice The currently winning choice (or 0 if it's tied). Note that 0 can also be return if the majority refuses to arbitrate.\n     */\n    function getWinningChoice(uint _disputeID, uint _appeals) public view returns (uint winningChoice) {\n        return disputes[_disputeID].voteCounter[_appeals].winningChoice;\n    }\n\n    /** @dev Getter for winningCount in VoteCounter.\n     *  @param _disputeID ID of the dispute.\n     *  @param _appeals Which appeal (or 0 for the initial session).\n     *  @return winningCount The amount of votes the winning choice (or those who are tied) has.\n     */\n    function getWinningCount(uint _disputeID, uint _appeals) public view returns (uint winningCount) {\n        return disputes[_disputeID].voteCounter[_appeals].winningCount;\n    }\n\n    /** @dev Getter for voteCount in VoteCounter.\n     *  @param _disputeID ID of the dispute.\n     *  @param _appeals Which appeal (or 0 for the initial session).\n     *  @param _choice The choice.\n     *  @return voteCount The amount of votes the winning choice (or those who are tied) has.\n     */\n    function getVoteCount(uint _disputeID, uint _appeals, uint _choice) public view returns (uint voteCount) {\n        return disputes[_disputeID].voteCounter[_appeals].voteCount[_choice];\n    }\n\n    /** @dev Getter for lastSessionVote in Dispute.\n     *  @param _disputeID ID of the dispute.\n     *  @param _juror The juror we want to get the last session he voted.\n     *  @return lastSessionVote The last session the juror voted.\n     */\n    function getLastSessionVote(uint _disputeID, address _juror) public view returns (uint lastSessionVote) {\n        return disputes[_disputeID].lastSessionVote[_juror];\n    }\n\n    /** @dev Is the juror drawn in the draw of the dispute.\n     *  @param _disputeID ID of the dispute.\n     *  @param _juror The juror.\n     *  @param _draw The draw. Note that it starts at 1.\n     *  @return drawn True if the juror is drawn, false otherwise.\n     */\n    function isDrawn(uint _disputeID, address _juror, uint _draw) public view returns (bool drawn) {\n        Dispute storage dispute = disputes[_disputeID];\n        Juror storage juror = jurors[_juror];\n        if (juror.lastSession != session\n        || (dispute.session+dispute.appeals != session)\n        || period<=Period.Draw\n        || _draw>amountJurors(_disputeID)\n        || _draw==0\n        || segmentSize==0\n        ) {\n            return false;\n        } else {\n            uint position = uint(keccak256(randomNumber,_disputeID,_draw)) % segmentSize;\n            return (position >= juror.segmentStart) && (position < juror.segmentEnd);\n        }\n\n    }\n\n    /** @dev Return the current ruling of a dispute. This is useful for parties to know if they should appeal.\n     *  @param _disputeID ID of the dispute.\n     *  @return ruling The current ruling which will be given if there is no appeal. If it is not available, return 0.\n     */\n    function currentRuling(uint _disputeID) public view returns (uint ruling) {\n        Dispute storage dispute = disputes[_disputeID];\n        return dispute.voteCounter[dispute.appeals].winningChoice;\n    }\n\n    /** @dev Return the status of a dispute.\n     *  @param _disputeID ID of the dispute to rule.\n     *  @return status The status of the dispute.\n     */\n    function disputeStatus(uint _disputeID) public view returns (DisputeStatus status) {\n        Dispute storage dispute = disputes[_disputeID];\n        if (dispute.session+dispute.appeals < session) // Dispute of past session.\n            return DisputeStatus.Solved;\n        else if(dispute.session+dispute.appeals == session) { // Dispute of current session.\n            if (dispute.state == DisputeState.Open) {\n                if (period < Period.Appeal)\n                    return DisputeStatus.Waiting;\n                else if (period == Period.Appeal)\n                    return DisputeStatus.Appealable;\n                else return DisputeStatus.Solved;\n            } else return DisputeStatus.Solved;\n        } else return DisputeStatus.Waiting; // Dispute for future session.\n    }\n\n    // **************************** //\n    // *     Governor Functions   * //\n    // **************************** //\n\n    /** @dev General call function where the contract execute an arbitrary call with data and ETH following governor orders.\n     *  @param _data Transaction data.\n     *  @param _value Transaction value.\n     *  @param _target Transaction target.\n     */\n    function executeOrder(bytes32 _data, uint _value, address _target) public onlyGovernor {\n        _target.call.value(_value)(_data);\n    }\n\n    /** @dev Setter for rng.\n     *  @param _rng An instance of RNG.\n     */\n    function setRng(RNG _rng) public onlyGovernor {\n        rng = _rng;\n    }\n\n    /** @dev Setter for arbitrationFeePerJuror.\n     *  @param _arbitrationFeePerJuror The fee which will be paid to each juror.\n     */\n    function setArbitrationFeePerJuror(uint _arbitrationFeePerJuror) public onlyGovernor {\n        arbitrationFeePerJuror = _arbitrationFeePerJuror;\n    }\n\n    /** @dev Setter for defaultNumberJuror.\n     *  @param _defaultNumberJuror Number of drawn jurors unless specified otherwise.\n     */\n    function setDefaultNumberJuror(uint16 _defaultNumberJuror) public onlyGovernor {\n        defaultNumberJuror = _defaultNumberJuror;\n    }\n\n    /** @dev Setter for minActivatedToken.\n     *  @param _minActivatedToken Minimum of tokens to be activated (in basic units).\n     */\n    function setMinActivatedToken(uint _minActivatedToken) public onlyGovernor {\n        minActivatedToken = _minActivatedToken;\n    }\n\n    /** @dev Setter for timePerPeriod.\n     *  @param _timePerPeriod The minimum time each period lasts (seconds).\n     */\n    function setTimePerPeriod(uint[5] _timePerPeriod) public onlyGovernor {\n        timePerPeriod = _timePerPeriod;\n    }\n\n    /** @dev Setter for alpha.\n     *  @param _alpha Alpha in .\n     */\n    function setAlpha(uint _alpha) public onlyGovernor {\n        alpha = _alpha;\n    }\n\n    /** @dev Setter for maxAppeals.\n     *  @param _maxAppeals Number of times a dispute can be appealed. When exceeded appeal cost becomes NON_PAYABLE_AMOUNT.\n     */\n    function setMaxAppeals(uint _maxAppeals) public onlyGovernor {\n        maxAppeals = _maxAppeals;\n    }\n\n    /** @dev Setter for governor.\n     *  @param _governor Address of the governor contract.\n     */\n    function setGovernor(address _governor) public onlyGovernor {\n        governor = _governor;\n    }\n}\n",
  "sourcePath": "/Users/samvitello/kleros/kleros/contracts/Kleros.sol",
  "compiler": {
    "name": "solc",
    "version": "0.4.24+commit.e67f0147.Emscripten.clang"
  },
  "schemaVersion": "2.0.1",
  "updatedAt": "2018-08-14T17:17:31.126Z"
}